{
  "contractName": "index",
  "abi": [
    {
      "anonymous": false,
      "inputs": [
        {
          "indexed": false,
          "internalType": "string",
          "name": "listingId",
          "type": "string"
        },
        {
          "indexed": false,
          "internalType": "string",
          "name": "buyerId",
          "type": "string"
        },
        {
          "indexed": false,
          "internalType": "string",
          "name": "sellerId",
          "type": "string"
        },
        {
          "indexed": false,
          "internalType": "address",
          "name": "sellerAddr",
          "type": "address"
        }
      ],
      "name": "DepositCreated",
      "type": "event"
    },
    {
      "anonymous": false,
      "inputs": [
        {
          "indexed": false,
          "internalType": "address",
          "name": "receiver",
          "type": "address"
        },
        {
          "indexed": false,
          "internalType": "uint256",
          "name": "amount",
          "type": "uint256"
        }
      ],
      "name": "DepositTransfered",
      "type": "event"
    },
    {
      "inputs": [
        {
          "internalType": "uint256",
          "name": "",
          "type": "uint256"
        }
      ],
      "name": "recordKeys",
      "outputs": [
        {
          "internalType": "string",
          "name": "",
          "type": "string"
        }
      ],
      "stateMutability": "view",
      "type": "function",
      "constant": true
    },
    {
      "inputs": [
        {
          "internalType": "string",
          "name": "",
          "type": "string"
        }
      ],
      "name": "records",
      "outputs": [
        {
          "internalType": "address payable",
          "name": "sellerAddr",
          "type": "address"
        },
        {
          "internalType": "string",
          "name": "sellerId",
          "type": "string"
        },
        {
          "internalType": "address payable",
          "name": "buyerAddr",
          "type": "address"
        },
        {
          "internalType": "string",
          "name": "buyerId",
          "type": "string"
        },
        {
          "internalType": "uint256",
          "name": "value",
          "type": "uint256"
        },
        {
          "internalType": "enum Status",
          "name": "status",
          "type": "uint8"
        }
      ],
      "stateMutability": "view",
      "type": "function",
      "constant": true
    },
    {
      "inputs": [
        {
          "internalType": "string",
          "name": "listingId",
          "type": "string"
        },
        {
          "internalType": "string",
          "name": "buyerId",
          "type": "string"
        },
        {
          "internalType": "string",
          "name": "sellerId",
          "type": "string"
        },
        {
          "internalType": "address",
          "name": "sellerAddr",
          "type": "address"
        }
      ],
      "name": "saveDeposit",
      "outputs": [],
      "stateMutability": "payable",
      "type": "function",
      "payable": true
    },
    {
      "inputs": [
        {
          "internalType": "string",
          "name": "listingId",
          "type": "string"
        },
        {
          "internalType": "string",
          "name": "buyerId",
          "type": "string"
        },
        {
          "internalType": "address",
          "name": "receiver",
          "type": "address"
        }
      ],
      "name": "transfer",
      "outputs": [],
      "stateMutability": "payable",
      "type": "function",
      "payable": true
    },
    {
      "inputs": [
        {
          "internalType": "string",
          "name": "listingId",
          "type": "string"
        },
        {
          "internalType": "string",
          "name": "buyerId",
          "type": "string"
        }
      ],
      "name": "getDepositStatus",
      "outputs": [
        {
          "internalType": "enum Status",
          "name": "",
          "type": "uint8"
        }
      ],
      "stateMutability": "view",
      "type": "function",
      "constant": true
    },
    {
      "inputs": [],
      "name": "getBalance",
      "outputs": [
        {
          "internalType": "uint256",
          "name": "",
          "type": "uint256"
        }
      ],
      "stateMutability": "view",
      "type": "function",
      "constant": true
    },
    {
      "inputs": [],
      "name": "getNumberOfRecords",
      "outputs": [
        {
          "internalType": "uint256",
          "name": "",
          "type": "uint256"
        }
      ],
      "stateMutability": "view",
      "type": "function",
      "constant": true
    },
    {
      "inputs": [
        {
          "internalType": "string",
          "name": "listingId",
          "type": "string"
        },
        {
          "internalType": "string",
          "name": "buyerId",
          "type": "string"
        }
      ],
      "name": "getRecord",
      "outputs": [
        {
          "components": [
            {
              "internalType": "address payable",
              "name": "sellerAddr",
              "type": "address"
            },
            {
              "internalType": "string",
              "name": "sellerId",
              "type": "string"
            },
            {
              "internalType": "address payable",
              "name": "buyerAddr",
              "type": "address"
            },
            {
              "internalType": "string",
              "name": "buyerId",
              "type": "string"
            },
            {
              "internalType": "uint256",
              "name": "value",
              "type": "uint256"
            },
            {
              "internalType": "enum Status",
              "name": "status",
              "type": "uint8"
            }
          ],
          "internalType": "struct Record",
          "name": "",
          "type": "tuple"
        }
      ],
      "stateMutability": "view",
      "type": "function",
      "constant": true
    },
    {
      "inputs": [],
      "name": "getAllRecords",
      "outputs": [
        {
          "components": [
            {
              "internalType": "address payable",
              "name": "sellerAddr",
              "type": "address"
            },
            {
              "internalType": "string",
              "name": "sellerId",
              "type": "string"
            },
            {
              "internalType": "address payable",
              "name": "buyerAddr",
              "type": "address"
            },
            {
              "internalType": "string",
              "name": "buyerId",
              "type": "string"
            },
            {
              "internalType": "uint256",
              "name": "value",
              "type": "uint256"
            },
            {
              "internalType": "enum Status",
              "name": "status",
              "type": "uint8"
            }
          ],
          "internalType": "struct Record[]",
          "name": "",
          "type": "tuple[]"
        }
      ],
      "stateMutability": "view",
      "type": "function",
      "constant": true
    }
  ],
  "bytecode": "0x608060405234801561001057600080fd5b50611c57806100206000396000f3fe6080604052600436106100865760003560e01c80638a53ddb9116100595780638a53ddb914610151578063949f2cef1461018e578063a7f9fe72146101b9578063d4f246fe146101e4578063d7b3d5021461020057610086565b806312065fe01461008b57806336ac773d146100b65780633d4e9cd1146100d2578063541e771d1461010f575b600080fd5b34801561009757600080fd5b506100a061023d565b6040516100ad919061111f565b60405180910390f35b6100d060048036038101906100cb91906112f2565b610245565b005b3480156100de57600080fd5b506100f960048036038101906100f491906113d9565b6103e3565b604051610106919061148e565b60405180910390f35b34801561011b57600080fd5b50610136600480360381019061013191906114b0565b61048f565b60405161014896959493929190611591565b60405180910390f35b34801561015d57600080fd5b5061017860048036038101906101739190611600565b61063e565b604051610185919061177f565b60405180910390f35b34801561019a57600080fd5b506101a361089b565b6040516101b0919061111f565b60405180910390f35b3480156101c557600080fd5b506101ce6108a8565b6040516101db91906118f3565b60405180910390f35b6101fe60048036038101906101f99190611915565b610c3b565b005b34801561020c57600080fd5b5061022760048036038101906102229190611600565b610d64565b60405161023491906119a0565b60405180910390f35b600047905090565b60006102518585610fc3565b90506000808260405161026491906119f7565b90815260200160405180910390209050828160000160006101000a81548173ffffffffffffffffffffffffffffffffffffffff021916908373ffffffffffffffffffffffffffffffffffffffff160217905550838160010190805190602001906102cf929190610fef565b50338160020160006101000a81548173ffffffffffffffffffffffffffffffffffffffff021916908373ffffffffffffffffffffffffffffffffffffffff1602179055508481600301908051906020019061032b929190610fef565b5034816004018190555060008160050160006101000a81548160ff0219169083600181111561035d5761035c61151a565b5b021790555060018290806001815401808255809150506001900390600052602060002001600090919091909150908051906020019061039d929190610fef565b507f9456009924bca59190abd274955f9ee593e4738a2e78055ea5fdda3ec2af5993868686866040516103d39493929190611a1d565b60405180910390a1505050505050565b600181815481106103f357600080fd5b90600052602060002001600091509050805461040e90611aa6565b80601f016020809104026020016040519081016040528092919081815260200182805461043a90611aa6565b80156104875780601f1061045c57610100808354040283529160200191610487565b820191906000526020600020905b81548152906001019060200180831161046a57829003601f168201915b505050505081565b6000818051602081018201805184825260208301602085012081835280955050505050506000915090508060000160009054906101000a900473ffffffffffffffffffffffffffffffffffffffff16908060010180546104ee90611aa6565b80601f016020809104026020016040519081016040528092919081815260200182805461051a90611aa6565b80156105675780601f1061053c57610100808354040283529160200191610567565b820191906000526020600020905b81548152906001019060200180831161054a57829003601f168201915b5050505050908060020160009054906101000a900473ffffffffffffffffffffffffffffffffffffffff16908060030180546105a290611aa6565b80601f01602080910402602001604051908101604052809291908181526020018280546105ce90611aa6565b801561061b5780601f106105f05761010080835404028352916020019161061b565b820191906000526020600020905b8154815290600101906020018083116105fe57829003601f168201915b5050505050908060040154908060050160009054906101000a900460ff16905086565b610646611075565b60006106528484610fc3565b905060008160405161066491906119f7565b90815260200160405180910390206040518060c00160405290816000820160009054906101000a900473ffffffffffffffffffffffffffffffffffffffff1673ffffffffffffffffffffffffffffffffffffffff1673ffffffffffffffffffffffffffffffffffffffff1681526020016001820180546106e390611aa6565b80601f016020809104026020016040519081016040528092919081815260200182805461070f90611aa6565b801561075c5780601f106107315761010080835404028352916020019161075c565b820191906000526020600020905b81548152906001019060200180831161073f57829003601f168201915b505050505081526020016002820160009054906101000a900473ffffffffffffffffffffffffffffffffffffffff1673ffffffffffffffffffffffffffffffffffffffff1673ffffffffffffffffffffffffffffffffffffffff1681526020016003820180546107cb90611aa6565b80601f01602080910402602001604051908101604052809291908181526020018280546107f790611aa6565b80156108445780601f1061081957610100808354040283529160200191610844565b820191906000526020600020905b81548152906001019060200180831161082757829003601f168201915b50505050508152602001600482015481526020016005820160009054906101000a900460ff16600181111561087c5761087b61151a565b5b600181111561088e5761088d61151a565b5b8152505091505092915050565b6000600180549050905090565b60606000600180549050905060008167ffffffffffffffff8111156108d0576108cf611169565b5b60405190808252806020026020018201604052801561090957816020015b6108f6611075565b8152602001906001900390816108ee5790505b50905060005b82811015610c325760006001828154811061092d5761092c611ad7565b5b90600052602060002001805461094290611aa6565b80601f016020809104026020016040519081016040528092919081815260200182805461096e90611aa6565b80156109bb5780601f10610990576101008083540402835291602001916109bb565b820191906000526020600020905b81548152906001019060200180831161099e57829003601f168201915b505050505090506000816040516109d291906119f7565b90815260200160405180910390206040518060c00160405290816000820160009054906101000a900473ffffffffffffffffffffffffffffffffffffffff1673ffffffffffffffffffffffffffffffffffffffff1673ffffffffffffffffffffffffffffffffffffffff168152602001600182018054610a5190611aa6565b80601f0160208091040260200160405190810160405280929190818152602001828054610a7d90611aa6565b8015610aca5780601f10610a9f57610100808354040283529160200191610aca565b820191906000526020600020905b815481529060010190602001808311610aad57829003601f168201915b505050505081526020016002820160009054906101000a900473ffffffffffffffffffffffffffffffffffffffff1673ffffffffffffffffffffffffffffffffffffffff1673ffffffffffffffffffffffffffffffffffffffff168152602001600382018054610b3990611aa6565b80601f0160208091040260200160405190810160405280929190818152602001828054610b6590611aa6565b8015610bb25780601f10610b8757610100808354040283529160200191610bb2565b820191906000526020600020905b815481529060010190602001808311610b9557829003601f168201915b50505050508152602001600482015481526020016005820160009054906101000a900460ff166001811115610bea57610be961151a565b5b6001811115610bfc57610bfb61151a565b5b81525050838381518110610c1357610c12611ad7565b5b6020026020010181905250508080610c2a90611b35565b91505061090f565b50809250505090565b6000610c478484610fc3565b905060008082604051610c5a91906119f7565b9081526020016040518091039020905060006001811115610c7e57610c7d61151a565b5b8160050160009054906101000a900460ff166001811115610ca257610ca161151a565b5b03610d5d578273ffffffffffffffffffffffffffffffffffffffff166108fc82600401549081150290604051600060405180830381858888f19350505050158015610cf1573d6000803e3d6000fd5b5060018160050160006101000a81548160ff02191690836001811115610d1a57610d1961151a565b5b02179055507fd53af112ca7ed39a6703b20fdd6d9ba736fa9c4eb659fea8e470e2930a48e2c2838260040154604051610d54929190611b7d565b60405180910390a15b5050505050565b600080610d718484610fc3565b905060008082604051610d8491906119f7565b90815260200160405180910390206040518060c00160405290816000820160009054906101000a900473ffffffffffffffffffffffffffffffffffffffff1673ffffffffffffffffffffffffffffffffffffffff1673ffffffffffffffffffffffffffffffffffffffff168152602001600182018054610e0390611aa6565b80601f0160208091040260200160405190810160405280929190818152602001828054610e2f90611aa6565b8015610e7c5780601f10610e5157610100808354040283529160200191610e7c565b820191906000526020600020905b815481529060010190602001808311610e5f57829003601f168201915b505050505081526020016002820160009054906101000a900473ffffffffffffffffffffffffffffffffffffffff1673ffffffffffffffffffffffffffffffffffffffff1673ffffffffffffffffffffffffffffffffffffffff168152602001600382018054610eeb90611aa6565b80601f0160208091040260200160405190810160405280929190818152602001828054610f1790611aa6565b8015610f645780601f10610f3957610100808354040283529160200191610f64565b820191906000526020600020905b815481529060010190602001808311610f4757829003601f168201915b50505050508152602001600482015481526020016005820160009054906101000a900460ff166001811115610f9c57610f9b61151a565b5b6001811115610fae57610fad61151a565b5b8152505090508060a001519250505092915050565b60608282604051602001610fd8929190611bf2565b604051602081830303815290604052905092915050565b828054610ffb90611aa6565b90600052602060002090601f01602090048101928261101d5760008555611064565b82601f1061103657805160ff1916838001178555611064565b82800160010185558215611064579182015b82811115611063578251825591602001919060010190611048565b5b50905061107191906110e9565b5090565b6040518060c00160405280600073ffffffffffffffffffffffffffffffffffffffff16815260200160608152602001600073ffffffffffffffffffffffffffffffffffffffff1681526020016060815260200160008152602001600060018111156110e3576110e261151a565b5b81525090565b5b808211156111025760008160009055506001016110ea565b5090565b6000819050919050565b61111981611106565b82525050565b60006020820190506111346000830184611110565b92915050565b6000604051905090565b600080fd5b600080fd5b600080fd5b600080fd5b6000601f19601f8301169050919050565b7f4e487b7100000000000000000000000000000000000000000000000000000000600052604160045260246000fd5b6111a182611158565b810181811067ffffffffffffffff821117156111c0576111bf611169565b5b80604052505050565b60006111d361113a565b90506111df8282611198565b919050565b600067ffffffffffffffff8211156111ff576111fe611169565b5b61120882611158565b9050602081019050919050565b82818337600083830152505050565b6000611237611232846111e4565b6111c9565b90508281526020810184848401111561125357611252611153565b5b61125e848285611215565b509392505050565b600082601f83011261127b5761127a61114e565b5b813561128b848260208601611224565b91505092915050565b600073ffffffffffffffffffffffffffffffffffffffff82169050919050565b60006112bf82611294565b9050919050565b6112cf816112b4565b81146112da57600080fd5b50565b6000813590506112ec816112c6565b92915050565b6000806000806080858703121561130c5761130b611144565b5b600085013567ffffffffffffffff81111561132a57611329611149565b5b61133687828801611266565b945050602085013567ffffffffffffffff81111561135757611356611149565b5b61136387828801611266565b935050604085013567ffffffffffffffff81111561138457611383611149565b5b61139087828801611266565b92505060606113a1878288016112dd565b91505092959194509250565b6113b681611106565b81146113c157600080fd5b50565b6000813590506113d3816113ad565b92915050565b6000602082840312156113ef576113ee611144565b5b60006113fd848285016113c4565b91505092915050565b600081519050919050565b600082825260208201905092915050565b60005b83811015611440578082015181840152602081019050611425565b8381111561144f576000848401525b50505050565b600061146082611406565b61146a8185611411565b935061147a818560208601611422565b61148381611158565b840191505092915050565b600060208201905081810360008301526114a88184611455565b905092915050565b6000602082840312156114c6576114c5611144565b5b600082013567ffffffffffffffff8111156114e4576114e3611149565b5b6114f084828501611266565b91505092915050565b600061150482611294565b9050919050565b611514816114f9565b82525050565b7f4e487b7100000000000000000000000000000000000000000000000000000000600052602160045260246000fd5b6002811061155a5761155961151a565b5b50565b600081905061156b82611549565b919050565b600061157b8261155d565b9050919050565b61158b81611570565b82525050565b600060c0820190506115a6600083018961150b565b81810360208301526115b88188611455565b90506115c7604083018761150b565b81810360608301526115d98186611455565b90506115e86080830185611110565b6115f560a0830184611582565b979650505050505050565b6000806040838503121561161757611616611144565b5b600083013567ffffffffffffffff81111561163557611634611149565b5b61164185828601611266565b925050602083013567ffffffffffffffff81111561166257611661611149565b5b61166e85828601611266565b9150509250929050565b611681816114f9565b82525050565b600082825260208201905092915050565b60006116a382611406565b6116ad8185611687565b93506116bd818560208601611422565b6116c681611158565b840191505092915050565b6116da81611106565b82525050565b6116e981611570565b82525050565b600060c0830160008301516117076000860182611678565b506020830151848203602086015261171f8282611698565b91505060408301516117346040860182611678565b506060830151848203606086015261174c8282611698565b915050608083015161176160808601826116d1565b5060a083015161177460a08601826116e0565b508091505092915050565b6000602082019050818103600083015261179981846116ef565b905092915050565b600081519050919050565b600082825260208201905092915050565b6000819050602082019050919050565b600060c0830160008301516117e56000860182611678565b50602083015184820360208601526117fd8282611698565b91505060408301516118126040860182611678565b506060830151848203606086015261182a8282611698565b915050608083015161183f60808601826116d1565b5060a083015161185260a08601826116e0565b508091505092915050565b600061186983836117cd565b905092915050565b6000602082019050919050565b6000611889826117a1565b61189381856117ac565b9350836020820285016118a5856117bd565b8060005b858110156118e157848403895281516118c2858261185d565b94506118cd83611871565b925060208a019950506001810190506118a9565b50829750879550505050505092915050565b6000602082019050818103600083015261190d818461187e565b905092915050565b60008060006060848603121561192e5761192d611144565b5b600084013567ffffffffffffffff81111561194c5761194b611149565b5b61195886828701611266565b935050602084013567ffffffffffffffff81111561197957611978611149565b5b61198586828701611266565b9250506040611996868287016112dd565b9150509250925092565b60006020820190506119b56000830184611582565b92915050565b600081905092915050565b60006119d182611406565b6119db81856119bb565b93506119eb818560208601611422565b80840191505092915050565b6000611a0382846119c6565b915081905092915050565b611a17816112b4565b82525050565b60006080820190508181036000830152611a378187611455565b90508181036020830152611a4b8186611455565b90508181036040830152611a5f8185611455565b9050611a6e6060830184611a0e565b95945050505050565b7f4e487b7100000000000000000000000000000000000000000000000000000000600052602260045260246000fd5b60006002820490506001821680611abe57607f821691505b602082108103611ad157611ad0611a77565b5b50919050565b7f4e487b7100000000000000000000000000000000000000000000000000000000600052603260045260246000fd5b7f4e487b7100000000000000000000000000000000000000000000000000000000600052601160045260246000fd5b6000611b4082611106565b91507fffffffffffffffffffffffffffffffffffffffffffffffffffffffffffffffff8203611b7257611b71611b06565b5b600182019050919050565b6000604082019050611b926000830185611a0e565b611b9f6020830184611110565b9392505050565b7f2d00000000000000000000000000000000000000000000000000000000000000600082015250565b6000611bdc6001836119bb565b9150611be782611ba6565b600182019050919050565b6000611bfe82856119c6565b9150611c0982611bcf565b9150611c1582846119c6565b9150819050939250505056fea2646970667358221220d60f54f44af48e9d1915d15b2ae0ed6f9999ffca1485376d8ff72417e7ff55bf64736f6c634300080d0033",
  "immutableReferences": {},
  "source": "pragma solidity >=0.4.22 <0.9.0;\n\nenum Status {\n    InProgress,\n    Completed\n}\n\nstruct Record {\n    address payable sellerAddr;\n    string sellerId;\n    address payable buyerAddr;\n    string buyerId;\n    uint256 value;\n    Status status;\n}\n\ncontract index {\n    mapping(string => Record) public records;\n    string[] public recordKeys;\n\n    event DepositCreated(\n        string listingId,\n        string buyerId,\n        string sellerId,\n        address sellerAddr\n    );\n    event DepositTransfered(address receiver, uint256 amount);\n\n    function saveDeposit(\n        string memory listingId,\n        string memory buyerId,\n        string memory sellerId,\n        address sellerAddr\n    ) external payable {\n        string memory key = getRecordKeyInTemplate(listingId, buyerId);\n        Record storage newRecord = records[key];\n        newRecord.sellerAddr = payable(sellerAddr);\n        newRecord.sellerId = sellerId;\n        newRecord.buyerAddr = payable(msg.sender);\n        newRecord.buyerId = buyerId;\n        newRecord.value = msg.value;\n        newRecord.status = Status.InProgress;\n\n        recordKeys.push(key);\n        emit DepositCreated(listingId, buyerId, sellerId, sellerAddr);\n    }\n\n    function transfer(\n        string memory listingId,\n        string memory buyerId,\n        address receiver\n    ) external payable {\n        string memory key = getRecordKeyInTemplate(listingId, buyerId);\n        Record storage record = records[key];\n\n        if (record.status == Status.InProgress) {\n            payable(receiver).transfer(record.value);\n            record.status = Status.Completed;\n            emit DepositTransfered(receiver, record.value);\n        }\n    }\n\n    // function confirmDeposit(\n    //     string memory listingId,\n    //     string memory buyerId\n    // ) public {\n    //     string memory key = getRecordKeyInTemplate(listingId, buyerId);\n    //     Record storage record = records[key];\n    //     record.status = Status.Confirmed;\n    // }\n\n    function getDepositStatus(\n        string memory listingId,\n        string memory buyerId\n    ) public view returns (Status) {\n        string memory key = getRecordKeyInTemplate(listingId, buyerId);\n        Record memory record = records[key];\n        return record.status;\n    }\n\n    function getBalance() public view returns (uint256) {\n        return address(this).balance;\n    }\n\n    function getNumberOfRecords() public view returns (uint256) {\n        return recordKeys.length;\n    }\n\n    function getRecord(\n        string memory listingId,\n        string memory buyerId\n    ) public view returns (Record memory) {\n        string memory key = getRecordKeyInTemplate(listingId, buyerId);\n        return records[key];\n    }\n\n    function getAllRecords() public view returns (Record[] memory) {\n        uint256 numberOfRecords = recordKeys.length;\n        Record[] memory allRecords = new Record[](numberOfRecords);\n\n        for (uint256 i = 0; i < numberOfRecords; i++) {\n            string memory key = recordKeys[i];\n            allRecords[i] = records[key];\n        }\n\n        return allRecords;\n    }\n\n    function getRecordKeyInTemplate(\n        string memory listingId,\n        string memory buyerId\n    ) private pure returns (string memory) {\n        return string(abi.encodePacked(listingId, \"-\", buyerId));\n    }\n    // enum State {\n    //     Created,\n    //     Locked,\n    //     Release,\n    //     Inactive\n    // }\n    // /// The function cannot be called at the current state.\n    // error InvalidState();\n    // error InvalidStatus();\n    // //   Ony the buyer can call this function\n    // error OnlyBuyer();\n    // ///  Ony the seller can call this function\n    // error OnlySeller();\n    // modifier inState(State state_) {\n    //     if (state != state_) {\n    //         revert InvalidState();\n    //     }\n    //     _;\n    // }\n    // modifier inStatus(Status status_) {\n    //     if (status != status_) {\n    //         revert InvalidStatus();\n    //     }\n    //     _;\n    // }\n    // modifier onlyBuyer() {\n    //     if (msg.sender != records.buyer) {\n    //         revert OnlyBuyer();\n    //     }\n    //     _;\n    // }\n    // modifier onlySeller() {\n    //     if (msg.sender != seller) {\n    //         revert OnlySeller();\n    //     }\n    //     _;\n    // }\n    // function confirmPurchase() public payable {\n    //     require(msg.value == value, \"Please send the purchase amount\");\n    //     buyer = payable(msg.sender);\n    //     state = State.Locked;\n    //     status = Status.Packaged;\n    // }\n    // function declinePurchase()\n    //     public\n    //     payable\n    //     inState(State.Locked)\n    //     inStatus(Status.Packaged)\n    // {\n    //     state = State.Inactive;\n    //     status = Status.Cancelled;\n    //     buyer.transfer(value / 2);\n    //     seller.transfer(getBalance());\n    // }\n    // function confirmPakaged()\n    //     public\n    //     onlySeller\n    //     inState(State.Locked)\n    //     inStatus(Status.Packaged)\n    // {\n    //     status = Status.Shipped;\n    // }\n    // function confirmReceived()\n    //     public\n    //     onlyBuyer\n    //     inState(State.Locked)\n    //     inStatus(Status.Shipped)\n    // {\n    //     state = State.Release;\n    //     status = Status.Deliveried;\n    // }\n    // function getBalance() public view returns (uint256) {\n    //     return address(this).balance;\n    // }\n    // function fraudReceived()\n    //     public\n    //     payable\n    //     onlySeller\n    //     inState(State.Locked)\n    //     inStatus(Status.Shipped)\n    // {\n    //     state = State.Release;\n    //     seller.transfer(value + ((value * 4) / 10));\n    //     buyer.transfer(getBalance());\n    // }\n    // function paySeller()\n    //     public\n    //     onlySeller\n    //     inState(State.Release)\n    //     inStatus(Status.Deliveried)\n    // {\n    //     state = State.Inactive;\n    //     seller.transfer(address(this).balance);\n    // }\n    // Function to convert uint256 to string\n}\n",
  "sourcePath": "/home/nuocquyt/Desktop/homeland-bc/contracts/index.sol",
  "compiler": {
    "name": "solc",
    "version": "0.8.13+commit.abaa5c0e.Emscripten.clang"
  },
  "schemaVersion": "3.4.16",
  "updatedAt": "2024-01-19T14:15:58.468Z",
  "networkType": "ethereum",
  "devdoc": {
    "kind": "dev",
    "methods": {},
    "version": 1
  },
  "userdoc": {
    "kind": "user",
    "methods": {},
    "version": 1
  }
}